{
  "_format": "hh-sol-artifact-1",
  "contractName": "AcademicRegistry",
  "sourceName": "contracts/AcademicRegistry.sol",
  "abi": [
    {
      "anonymous": false,
      "inputs": [
        {
          "indexed": true,
          "internalType": "bytes32",
          "name": "hash",
          "type": "bytes32"
        },
        {
          "indexed": false,
          "internalType": "string",
          "name": "studentName",
          "type": "string"
        }
      ],
      "name": "CertificateIssued",
      "type": "event"
    },
    {
      "stateMutability": "payable",
      "type": "fallback"
    },
    {
      "inputs": [
        {
          "internalType": "bytes32",
          "name": "",
          "type": "bytes32"
        }
      ],
      "name": "certificates",
      "outputs": [
        {
          "internalType": "string",
          "name": "studentName",
          "type": "string"
        },
        {
          "internalType": "string",
          "name": "course",
          "type": "string"
        },
        {
          "internalType": "string",
          "name": "institution",
          "type": "string"
        },
        {
          "internalType": "uint256",
          "name": "issueDate",
          "type": "uint256"
        },
        {
          "internalType": "address",
          "name": "issuedBy",
          "type": "address"
        },
        {
          "internalType": "bool",
          "name": "isValid",
          "type": "bool"
        },
        {
          "internalType": "bool",
          "name": "exists",
          "type": "bool"
        }
      ],
      "stateMutability": "view",
      "type": "function"
    },
    {
      "inputs": [
        {
          "internalType": "bytes32",
          "name": "_hash",
          "type": "bytes32"
        }
      ],
      "name": "checkCertificate",
      "outputs": [
        {
          "internalType": "string",
          "name": "sName",
          "type": "string"
        },
        {
          "internalType": "string",
          "name": "cTitle",
          "type": "string"
        },
        {
          "internalType": "string",
          "name": "inst",
          "type": "string"
        },
        {
          "internalType": "uint256",
          "name": "date",
          "type": "uint256"
        },
        {
          "internalType": "address",
          "name": "issuer",
          "type": "address"
        },
        {
          "internalType": "bool",
          "name": "valid",
          "type": "bool"
        }
      ],
      "stateMutability": "view",
      "type": "function"
    },
    {
      "inputs": [
        {
          "internalType": "string",
          "name": "_name",
          "type": "string"
        },
        {
          "internalType": "string",
          "name": "_course",
          "type": "string"
        },
        {
          "internalType": "string",
          "name": "_inst",
          "type": "string"
        },
        {
          "internalType": "uint256",
          "name": "_date",
          "type": "uint256"
        },
        {
          "internalType": "bytes32",
          "name": "_hash",
          "type": "bytes32"
        }
      ],
      "name": "issueCertificate",
      "outputs": [],
      "stateMutability": "nonpayable",
      "type": "function"
    },
    {
      "inputs": [],
      "name": "version",
      "outputs": [
        {
          "internalType": "uint256",
          "name": "",
          "type": "uint256"
        }
      ],
      "stateMutability": "view",
      "type": "function"
    },
    {
      "stateMutability": "payable",
      "type": "receive"
    }
  ],
  "bytecode": "0x6080604052606460015534801561001557600080fd5b50611025806100256000396000f3fe6080604052600436106100435760003560e01c806354fd4d501461004c578063742f06881461007757806384a24da0146100ba5780639926f2b0146100fc5761004a565b3661004a57005b005b34801561005857600080fd5b50610061610125565b60405161006e91906107db565b60405180910390f35b34801561008357600080fd5b5061009e60048036038101906100999190610840565b61012b565b6040516100b19796959493929190610959565b60405180910390f35b3480156100c657600080fd5b506100e160048036038101906100dc9190610840565b61033f565b6040516100f3969594939291906109dd565b60405180910390f35b34801561010857600080fd5b50610123600480360381019061011e9190610bb4565b61064c565b005b60015481565b600060205280600052604060002060009150905080600001805461014e90610cb2565b80601f016020809104026020016040519081016040528092919081815260200182805461017a90610cb2565b80156101c75780601f1061019c576101008083540402835291602001916101c7565b820191906000526020600020905b8154815290600101906020018083116101aa57829003601f168201915b5050505050908060010180546101dc90610cb2565b80601f016020809104026020016040519081016040528092919081815260200182805461020890610cb2565b80156102555780601f1061022a57610100808354040283529160200191610255565b820191906000526020600020905b81548152906001019060200180831161023857829003601f168201915b50505050509080600201805461026a90610cb2565b80601f016020809104026020016040519081016040528092919081815260200182805461029690610cb2565b80156102e35780601f106102b8576101008083540402835291602001916102e3565b820191906000526020600020905b8154815290600101906020018083116102c657829003601f168201915b5050505050908060030154908060040160009054906101000a900473ffffffffffffffffffffffffffffffffffffffff16908060040160149054906101000a900460ff16908060040160159054906101000a900460ff16905087565b6060806060600080600080600088815260200190815260200160002060040160159054906101000a900460ff166103ab576040517f08c379a00000000000000000000000000000000000000000000000000000000081526004016103a290610d2f565b60405180910390fd5b60008060008981526020019081526020016000206040518060e00160405290816000820180546103da90610cb2565b80601f016020809104026020016040519081016040528092919081815260200182805461040690610cb2565b80156104535780601f1061042857610100808354040283529160200191610453565b820191906000526020600020905b81548152906001019060200180831161043657829003601f168201915b5050505050815260200160018201805461046c90610cb2565b80601f016020809104026020016040519081016040528092919081815260200182805461049890610cb2565b80156104e55780601f106104ba576101008083540402835291602001916104e5565b820191906000526020600020905b8154815290600101906020018083116104c857829003601f168201915b505050505081526020016002820180546104fe90610cb2565b80601f016020809104026020016040519081016040528092919081815260200182805461052a90610cb2565b80156105775780601f1061054c57610100808354040283529160200191610577565b820191906000526020600020905b81548152906001019060200180831161055a57829003601f168201915b50505050508152602001600382015481526020016004820160009054906101000a900473ffffffffffffffffffffffffffffffffffffffff1673ffffffffffffffffffffffffffffffffffffffff1673ffffffffffffffffffffffffffffffffffffffff1681526020016004820160149054906101000a900460ff161515151581526020016004820160159054906101000a900460ff1615151515815250509050806000015181602001518260400151836060015184608001518560a001519650965096509650965096505091939550919395565b6040518060e001604052808681526020018581526020018481526020018381526020013373ffffffffffffffffffffffffffffffffffffffff1681526020016001151581526020016001151581525060008083815260200190815260200160002060008201518160000190816106c29190610efb565b5060208201518160010190816106d89190610efb565b5060408201518160020190816106ee9190610efb565b506060820151816003015560808201518160040160006101000a81548173ffffffffffffffffffffffffffffffffffffffff021916908373ffffffffffffffffffffffffffffffffffffffff16021790555060a08201518160040160146101000a81548160ff02191690831515021790555060c08201518160040160156101000a81548160ff021916908315150217905550905050807faeb7e439524e4d35b43e6ccb53c42a2fe0361d2e96be31ebc6e2c3cb72aadb94866040516107b39190610fcd565b60405180910390a25050505050565b6000819050919050565b6107d5816107c2565b82525050565b60006020820190506107f060008301846107cc565b92915050565b6000604051905090565b600080fd5b600080fd5b6000819050919050565b61081d8161080a565b811461082857600080fd5b50565b60008135905061083a81610814565b92915050565b60006020828403121561085657610855610800565b5b60006108648482850161082b565b91505092915050565b600081519050919050565b600082825260208201905092915050565b60005b838110156108a757808201518184015260208101905061088c565b60008484015250505050565b6000601f19601f8301169050919050565b60006108cf8261086d565b6108d98185610878565b93506108e9818560208601610889565b6108f2816108b3565b840191505092915050565b600073ffffffffffffffffffffffffffffffffffffffff82169050919050565b6000610928826108fd565b9050919050565b6109388161091d565b82525050565b60008115159050919050565b6109538161093e565b82525050565b600060e0820190508181036000830152610973818a6108c4565b9050818103602083015261098781896108c4565b9050818103604083015261099b81886108c4565b90506109aa60608301876107cc565b6109b7608083018661092f565b6109c460a083018561094a565b6109d160c083018461094a565b98975050505050505050565b600060c08201905081810360008301526109f781896108c4565b90508181036020830152610a0b81886108c4565b90508181036040830152610a1f81876108c4565b9050610a2e60608301866107cc565b610a3b608083018561092f565b610a4860a083018461094a565b979650505050505050565b600080fd5b600080fd5b7f4e487b7100000000000000000000000000000000000000000000000000000000600052604160045260246000fd5b610a95826108b3565b810181811067ffffffffffffffff82111715610ab457610ab3610a5d565b5b80604052505050565b6000610ac76107f6565b9050610ad38282610a8c565b919050565b600067ffffffffffffffff821115610af357610af2610a5d565b5b610afc826108b3565b9050602081019050919050565b82818337600083830152505050565b6000610b2b610b2684610ad8565b610abd565b905082815260208101848484011115610b4757610b46610a58565b5b610b52848285610b09565b509392505050565b600082601f830112610b6f57610b6e610a53565b5b8135610b7f848260208601610b18565b91505092915050565b610b91816107c2565b8114610b9c57600080fd5b50565b600081359050610bae81610b88565b92915050565b600080600080600060a08688031215610bd057610bcf610800565b5b600086013567ffffffffffffffff811115610bee57610bed610805565b5b610bfa88828901610b5a565b955050602086013567ffffffffffffffff811115610c1b57610c1a610805565b5b610c2788828901610b5a565b945050604086013567ffffffffffffffff811115610c4857610c47610805565b5b610c5488828901610b5a565b9350506060610c6588828901610b9f565b9250506080610c768882890161082b565b9150509295509295909350565b7f4e487b7100000000000000000000000000000000000000000000000000000000600052602260045260246000fd5b60006002820490506001821680610cca57607f821691505b602082108103610cdd57610cdc610c83565b5b50919050565b7f4e6f74466f756e64000000000000000000000000000000000000000000000000600082015250565b6000610d19600883610878565b9150610d2482610ce3565b602082019050919050565b60006020820190508181036000830152610d4881610d0c565b9050919050565b60008190508160005260206000209050919050565b60006020601f8301049050919050565b600082821b905092915050565b600060088302610db17fffffffffffffffffffffffffffffffffffffffffffffffffffffffffffffffff82610d74565b610dbb8683610d74565b95508019841693508086168417925050509392505050565b6000819050919050565b6000610df8610df3610dee846107c2565b610dd3565b6107c2565b9050919050565b6000819050919050565b610e1283610ddd565b610e26610e1e82610dff565b848454610d81565b825550505050565b600090565b610e3b610e2e565b610e46818484610e09565b505050565b5b81811015610e6a57610e5f600082610e33565b600181019050610e4c565b5050565b601f821115610eaf57610e8081610d4f565b610e8984610d64565b81016020851015610e98578190505b610eac610ea485610d64565b830182610e4b565b50505b505050565b600082821c905092915050565b6000610ed260001984600802610eb4565b1980831691505092915050565b6000610eeb8383610ec1565b9150826002028217905092915050565b610f048261086d565b67ffffffffffffffff811115610f1d57610f1c610a5d565b5b610f278254610cb2565b610f32828285610e6e565b600060209050601f831160018114610f655760008415610f53578287015190505b610f5d8582610edf565b865550610fc5565b601f198416610f7386610d4f565b60005b82811015610f9b57848901518255600182019150602085019450602081019050610f76565b86831015610fb85784890151610fb4601f891682610ec1565b8355505b6001600288020188555050505b505050505050565b60006020820190508181036000830152610fe781846108c4565b90509291505056fea264697066735822122095949d737c963d3f7fc50e6c31679768ec14c4d369189aa5accc60f77717cbc564736f6c63430008140033",
  "linkReferences": {},
  "deployedLinkReferences": {}
}